:020000040800F2
:10000000080500200101000867160008FD1500081A
:100010006516000845050008531800080000000098
:100020000000000000000000000000006B16000847
:100030007F05000800000000691600086D16000822
:100040001B0100081B0100081B0100081B01000820
:100050001B0100081B0100081B0100081B01000810
:100060001B0100081B0100081B01000849050008CE
:100070001B0100081B0100081B0100081B010008F0
:100080001B0100081B0100081B0100081B010008E0
:100090001B0100081B0100081B0100081B010008D0
:1000A0001B0100081B0100081B0100081B010008C0
:1000B0001B0100081B0100081B0100081B010008B0
:1000C0001B0100081B0100081B0100081B010008A0
:1000D0001B0100081B0100081B0100081B01000890
:1000E0001B0100081B0100081B010008DFF80CD0F1
:1000F00000F074F9004800471D1A000808050020A8
:100100000648804706480047FEE7FEE7FEE7FEE7B1
:10011000FEE7FEE7FEE7FEE7FEE7FEE7D91600088A
:10012000ED000008D2B201E000F8012B491EFBD21D
:1001300070470022F6E710B513460A4604461946F2
:10014000FFF7F0FF204610BD421C10F8011B0029EC
:10015000FBD1801A7047F0B480EA0102D40F42004C
:10016000B2EB410F02D20246084611464A0042D085
:10017000C30DDDB2C1F3C752AD1A202D35DAC1F37C
:10018000160141F4000204B15242C5F1200602FA00
:1001900006F12A411044B3EBD05F23D0C4B1012D46
:1001A000A0EBC35009DCF0BC4FF0004202EAC3529E
:1001B000DBB200F5000000F0E3B8400000F1807011
:1001C00000EBC350A0F1807040EAD170490009E013
:1001D000490841EAC071A0EBC35000F50000400897
:1001E00000EBC350F0BC00F0C2B86142012202EB48
:1001F0004101001BF6E7F0BC704781F00041AAE71F
:1002000080F00040A7E780EA010210B502F0004349
:10021000400022D04A001FD0010E01EB1261C0F352
:100220005600C2F3560240F4000042F40002A0FB64
:10023000022000047F39140400D0401C50EA124010
:1002400001D44000491EC2B20C0604EBD010401C81
:100250004008802A02D003E0002010BD20F00100F9
:10026000002900DA0020184310BD30B480EA0102F2
:1002700002F0004530F0004221F0004013D090B170
:10028000C30DD40DC2F31601C0F31600E41A41F4F5
:10029000000140F400027D34914201D3641C00E06F
:1002A0004900002C02DA30BC002070474FF40000F7
:1002B0000023914201D3891A034340084FEA4101C8
:1002C000F7D151B1914202D14FF0004105E002D285
:1002D0004FF0010101E06FF0010103EBC45028442D
:1002E00030BC00F044B8420005D0C0F3C7525242BF
:1002F000914201DC0020704700EBC1507047C10FF4
:1003000080EAE0700844CA079623002100F038B85C
:1003100000F0004220F00040C10DC0F3160040F490
:1003200000007F2901DA00207047962903DCC1F123
:100330009601C84001E096398840002AF4D0404236
:10034000704730B50B46014600202022012409E009
:1003500021FA02F59D4205D303FA02F5491B04FA7E
:1003600002F52844151EA2F10102F1DC30BD00297E
:10037000A8BF7047401C490008BF20F0010070472B
:1003800010B4B0FA80FC00FA0CF050EA010404BF8B
:1003900010BC704749B1CCF1200421FA04F411FAE1
:1003A0000CF118BF012121430843A3EB0C01CB1D25
:1003B0004FEA00614FEA102042BF002010BC704796
:1003C00000EBC35010440029A4BF10BC7047401C70
:1003D000490008BF20F0010010BC7047064C074DD3
:1003E00006E0E06840F0010394E807009847103405
:1003F000AC42F6D3FFF77EFED01B0008F01B0008CE
:1004000070B5044600688168C943C90717D181687F
:1004100021F00101816000F0B1FC05460AE000BF57
:1004200000F0ACFC401B022804D920688068C0435F
:10043000C00706D020688068C043C007F0D0002005
:1004400070BDA06A40F01000A062E06A40F00100B8
:10045000E062012070BD10B50146406A826A12F068
:10046000500F05D0006A026BBDE8104008461047E7
:10047000816A41F40071816201688968C1F3424177
:1004800007290CD1017B51B9816A21F48071816205
:10049000816AC90403D4816A41F00101816200F0DC
:1004A000EFF810BD10B5406A816A41F040018162E9
:1004B000C16A41F00401C16200F0E4F810BD10B55A
:1004C000406A00F0DEF810BDF8B50026044600963C
:1004D00000688168C943C9072DD0816841F00101D6
:1004E0008160164816490068B0FBF1F000E0401E3C
:1004F00000900028FBD100F041FC054616E000BF4B
:1005000000F03CFC401B022810D920688068C043E2
:10051000C0070BD0A06A40F01000A062E06A40F073
:100520000100E06284F824600120F8BD2068806842
:10053000C043C007E4D10020F8BD00001000002037
:1005400040420F00FEE70000014800F0F7B900004C
:10055000C000002030B590F840500124AC40C56B7D
:100560006C60046863604368102B036803D0996073
:100570000068C26030BD9A600068C16030BD7047DD
:1005800072B6FEE7F8B50024009490F824202546C2
:10059000012A12D0012280F824204A681F23072A4A
:1005A0000DD20668776B521E02EB820293409F4386
:1005B0000B6893401F43776319E00220F8BD06687B
:1005C0000D2A0AD2376BD21F02EB820293409F435F
:1005D0000B6893401F43376309E0F76A0D3A02EB5B
:1005E000820293409F430B6893401F43F7620A685F
:1005F000072306680A2A0AD3F7680A3A02EB42027E
:1006000093409F438B6893401F43F76008E037692E
:1006100002EB420293409F438B6893401F43376134
:100620000A68102A01D0112A20D1124B02689A427E
:1006300017D193681B0219D4936843F400039360A5
:100640000968102912D10C490C4A0968B1FBF2F172
:1006500001EB8101490000E0491E00910029FBD116
:1006600004E0816A41F020018162012480F8245075
:100670002046F8BD002401401000002040420F0039
:1006800070477047704700002DE9F0414FF00007B8
:1006900004003D467ED0A06A002628B9E66284F8B0
:1006A0002460204600F07EF82046FFF7A9FEA16AEC
:1006B000C90600D420B1A06A40F01000A06269E031
:1006C000A16A21F4885141F00201A1626268E169E6
:1006D000237B0A4347EA43010A43A1684FF480772A
:1006E000B94209D0012907D05FF0000194F814C085
:1006F000BCF1010F02D00AE03946F7E7F3B1A36A73
:1007000043F02003A362E36A43F00103E36223683A
:10071000D3F804C02CF4694C4CEA010CC3F804C0B3
:1007200021688B68DFF870C003EA0C0313438B6009
:10073000A168B9420BD0012909D00CE0DFF85CC0F8
:10074000A3690CEB43330B4343F40061DFE7218AD9
:100750000D05A5F580152168CB6A23F470032B43A2
:10076000CB62216889680E4B1940914208D1E6623C
:10077000A16A21F0020141F00101A162BDE8F0810E
:10078000A06A20F0020040F01000A062E06A40F091
:100790000100E0620120F1E7FDF7E1FF00E0FFFF6B
:1007A000FE0E1FFF70B586B0002506460095019528
:1007B000029503950068194988422DD11849886926
:1007C00040F400708861886900F4007004908869C2
:1007D00040F0040088618869694600F004000490D4
:1007E0000320009001900F4800F0CAF90F4C0E480A
:1007F000C4E900058020C4E9025040002061800067
:1008000060612020C4E90605204600F041F908B1E6
:10081000FFF7B6FE3462666206B070BD0024014088
:10082000001002400008014008000240C000002003
:100830002DE9F047894604463B4900683B4F0E1DB1
:100840009046884201D0B84207D1306810F4702F2A
:1008500003D001252846BDE8F08794F8240001283C
:100860000CD0012084F824002046FFF72DFE05005F
:100870004FF0000004D084F82400EBE70220EAE700
:10088000A16A40F60162914341F48071A16221683E
:10089000B94218D1326812F4702F14D0A16A41F411
:1008A0008011A1623168490505D5A16A21F4005182
:1008B00041F48051A162A16AC9040AD5E16A21F01C
:1008C0000601E16206E0A26A22F48012A26249688F
:1008D000E9E7E06284F82400216A15488862216A09
:1008E0001448C862216A1448086321686FF0020046
:1008F00008602068816841F4807181602168434606
:100900004A464C31206A00F0F1F820688168C1F352
:1009100042410729816803D041F48011816099E741
:1009200041F4A001FAE70000002401400028014042
:1009300057040008BF040008A50400082DE9F05F73
:10094000C16B0C6801680B68D0F840C0042202FA41
:100950000CF2494DDFF824A1494E4A4FDFF828B187
:10096000DFF828E122422CD05A072AD50A689206DD
:1009700003D40A6822F004020A600168A94201D186
:10098000042219E0514501D1402215E0B14202D1C3
:100990004FF4806210E0B94202D14FF480420BE084
:1009A000594502D14FF4802206E0714502D14FF43F
:1009B000800201E04FF080622F4908394A60C16A25
:1009C0003BE04FF0020808FA0CF818EA040F4FF069
:1009D00000094FF0010235D05FEA837832D50B6809
:1009E0009B0605D40B6823F00A030B6080F82120D6
:1009F0000168A94201D1022219E0514501D120220A
:100A000015E0B14202D14FF4007210E0B94202D1B8
:100A10004FF400520BE0594502D14FF4003206E08A
:100A2000714502D14FF4001201E04FF000721249FB
:100A300008394A6080F82090816A00291AD0BDE800
:100A4000F05F0847082505FA0CF5254212D01B0770
:100A500010D50B6823F00E030B6090F84010C36BA9
:100A600002FA01F15960826380F8212080F8209019
:100A7000016BE2E7BDE8F09F080002401C00024065
:100A80003000024044000240580002406C00024026
:100A900030B528B308C8134914221944B1FBF2F148
:100AA0008900C16310498163022141771A6843F6C6
:100AB000F0718A43D0E900142143D0E902452C4368
:100AC000214304692143446921438469214311433B
:100AD000196000214163012242770177084630BD49
:100AE000012030BDF8FFFDBF0000024070B5044694
:100AF00090F82000002501280CD0012084F8200067
:100B000094F821600020012E06D084F820000225F0
:100B1000284670BD022070BD022684F82160A063C3
:100B20002068066826F0010606602046FFF712FDE1
:100B3000E06A00282068016802D041F00E0106E05A
:100B400021F0040101602068016841F00A010160A0
:100B50002068016841F001010160D9E770B50446E1
:100B600000F00CF90546601C02D0044800780444EB
:100B700000F004F9401BA042FAD370BD040000202D
:100B80002DE9F84FDFF8B8910024A9F1040B2346B2
:100B90000F2709F1040AABF1040EC9E00125A540B5
:100BA0002A40AA427DD1674ED1F804C0ACEB0608BA
:100BB000B44532D014DCBCF1030F3AD009DCBCF1EF
:100BC000000F2AD0BCF1010F1CD0BCF1020F31D1B3
:100BD0001DE0BCF1110F17D0BCF1120F2AD119E0A2
:100BE000B8F5881F19D006DCB8F5803F15D0B8F5E8
:100BF000801F1FD111E0B8F5001F0ED0B8F5041FFB
:100C000018D10AE0CB6815E0CB681B1D12E0CB6859
:100C100008330FE0CB680C330CE08B682BB1012B51
:100C20004FF0080303D0456104E0042302E00561AE
:100C300000E00023FF2A01D8064601E000F1040687
:100C40004FEA840501D9A5F12005D6F8008007FAFE
:100C500005FC28EA0C0803FA05F548EA0508C6F879
:100C600000804D68ED0062D5374DAE6946F0010653
:100C7000AE61AD6924F0030605F001050095334D22
:100C800006EB050CDCF80850A607360F07FA06F845
:100C900025EA0805DFF8B880404503D14FF0000889
:100CA00017E044E0DFF8AC80404502D14FF0010886
:100CB0000FE0DFF8A480404502D14FF0020808E0C1
:100CC000DFF89880404502D14FF0030801E04FF073
:100CD000040808FA06F848EA0508CCF808804D68C8
:100CE000D9F80060ED024D4601D5164300E0964369
:100CF0002E604D68DAF80060AD02554601D5164306
:100D000000E096432E604D68DBF80060AD035D4661
:100D100001D5164300E096432E604D68DEF8006072
:100D2000ED03754601D5164300E096432E60641C22
:100D30000D682A46E5407FF431AFBDE8F88F00002A
:100D400008040140000011100010024000000140A2
:100D500000080140000C0140001001400014014057
:100D6000C26821EA02030A4043EA02410161704776
:100D70000AB1016170470904FBE70000014880687F
:100D80007047000004000020024881680278114486
:100D90008160704704000020074810B5016841F0E9
:100DA00010010160032000F067F80F2000F006F842
:100DB00000F024F8002010BD0020024070B50D4D59
:100DC00004464FF47A712878B1FBF0F00A490968BB
:100DD000B1FBF0F000F044FB48B9102C07D2002220
:100DE0002146501E00F028F800206C6070BD0120E4
:100DF00070BD000004000020100000200C4808B561
:100E0000816941F001018161816901F00101009175
:100E1000C16941F08051C161C06900F0805000900B
:100E20000448416821F0E06141F08061416008BD03
:100E30000010024000000140F0B40E4B1B680C464D
:100E4000C3F30223C3F10705042D00D90425191D9E
:100E5000072901D2002300E0DB1E012606FA05F176
:100E6000491E214099409E40761E16403143F0BCF9
:100E700000F004BD0CED00E0064900F00702086830
:100E80004FF6FF03184040EA0220034A104308606F
:100E9000704700000CED00E00000FA052DE9F84372
:100EA00005460078354CC00754D0E0690026C000E4
:100EB00008D4E06940F08050E061E069012600F06C
:100EC000805000902E480168C90512D40168804600
:100ED00041F480710160FFF751FF074605E000BF54
:100EE000FFF74CFFC01B642823D8D8F80000C005CA
:100EF000F6D5206A10F4407021D0A98801F4407121
:100F000081421CD0206A1F49012220F440700A60EF
:100F100000220A602062C00711D0FFF72FFF0746AA
:100F200041F2883808E000BFFFF728FFC11B4145A8
:100F300002D90320BDE8F883206A8007F4D5206A2F
:100F4000696820F44070084320621EB1E06920F017
:100F50008050E0612878800705D56068A96820F492
:100F60004040084360602878C00605D56068E9689D
:100F700020F48000084360600020DBE7001002409E
:100F800000700040400442422DE9F0470F46050042
:100F900061D0434E306800F00700B84209D2306893
:100FA00020F0070038433060306800F00700B84296
:100FB00051D128683B4C810712D5400703D56068A2
:100FC00040F4E06060602878000703D5606840F472
:100FD000605060606068A96820F0F00008436060BD
:100FE0002878C00728D06868012810D02168022816
:100FF00010D0890700292EDA616821F0030101432E
:101000006160FFF7BBFE804641F288390DE0216840
:101010008903EFE78901EDE7FFF7B0FEA0EB0801D8
:10102000494502D90320BDE8F0876068696800F08F
:101030000C00B0EB810FEFD1306800F00700B84230
:101040000BD9306820F0070038433060306800F07A
:101050000700B84201D00120E5E72878400705D510
:101060006068E96820F4E060084360602878000761
:1010700006D56068296920F4605040EAC1006060CC
:1010800000F038F86168084AC1F30311515CC840A8
:101090000649086006480068FFF790FE0020C2E796
:1010A0000020024000100240B61B00081000002083
:1010B000080000200448054900684968044AC1F353
:1010C0000221515CC840704710000020001002400F
:1010D000C61B00080448054900684968044AC1F372
:1010E000C221515CC840704710000020001002402F
:1010F000C61B00080E4A51680E4801F00C03042B71
:1011000011D0082B0FD10C48C1F38343C903C05C35
:101110000AD55168084AC1F34041921E515C054A04
:101120005043B0FBF1F0704704494843704700005A
:101130000010024000127A00A61B000800093D00C2
:101140002DE9F84F040070D02078C04DC00749D079
:101150006868C0F38100012807D06868C0F3810087
:10116000022809D16868C00306D52868800339D5EC
:1011700060680028E7D035E06068B0F5803F0BD0AC
:1011800010B1B0F5A02F11D0286820F4803028606D
:10119000286820F4802002E0286840F4803028602D
:1011A000606890B1FFF7EAFD06460AE0286840F45F
:1011B00080202860F0E700BFFFF7E0FD801B642877
:1011C00073D828688003F7D50CE0FFF7D7FD0646F3
:1011D00005E000BFFFF7D2FD801B6428F0D8286827
:1011E0008003F7D420789A4E80074FF001094FF022
:1011F000000839D5686810F00C0F07D06868C0F394
:101200008100022809D16868C00306D428688007D5
:1012100014D52069012808D110E02069B0B1C6F8C2
:101220000090FFF7ABFD074605E00AE1FFF7A6FDDA
:10123000C01B0228C4D828688007F7D528686169D0
:1012400020F0F80040EAC10028600DE0C6F80080F8
:10125000FFF794FD074604E0FFF790FDC01B02284E
:1012600023D828688007F7D4207800072CD5794840
:10127000A169D9B1C0F80090FFF780FD074604E0EE
:10128000FFF77CFDC01B02280FD8686A8007F7D5DE
:1012900071484FF4FA510068B0FBF1F0009000BFC4
:1012A0000098411E0091FAD20EE080E0C0F8008064
:1012B000FFF764FD074604E0FFF760FDC01B02284E
:1012C00075D8686A8007F7D42078400760D5E86948
:1012D0000027C00008D4E86940F08050E861E86960
:1012E000012700F0805000905C480168C90513D4C4
:1012F0000168834641F480710160FFF73FFD82463B
:1013000006E000BFFFF73AFDA0EB0A0064284ED8C4
:10131000DBF80000C005F5D5E06801280AD008B167
:10132000052813D0286A20F001002862286A20F0DE
:10133000040002E0286A40F001002862E06841F2FF
:10134000883B98B1FFF71AFD82460BE0286A40F00F
:1013500004002862EEE700BFFFF710FDA0EB0A01D2
:1013600059455AD8286A8007F6D50CE0FFF706FDE4
:10137000824605E0FFF702FDA0EB0A0159454CD873
:10138000286A8007F6D41FB1E86920F08050E86130
:10139000E06988B36968C1F38101022944D0022859
:1013A000C6F8608004D0FFF7E9FC044638E034E07A
:1013B000FFF7E4FC074604E0FFF7E0FCC01B02284F
:1013C0002BD828688001F7D4206AB0F5803F05D17A
:1013D0006868A16820F4003008436860D4E9080117
:1013E0000843696821F4741108436860C6F8609086
:1013F000FFF7C4FC044606E025E000BFFFF7BEFC93
:10140000001B022809D828688001F7D51BE000BF1F
:10141000FFF7B4FC001B022802D90320BDE8F88FB7
:1014200028688001F4D40EE00128F7D06868226AA9
:1014300000F48031914204D1616A00F47010884256
:1014400001D00120EAE70020E8E700000010024098
:101450000000424280044242100000200070004020
:1014600010B5401EB0F1807F01D3012010BD4FF0B8
:10147000E02460610F21601700F000FA0020A061F5
:1014800007202061002010BD70B5040004D094F83E
:101490004100002510B106E0012070BD84F84050E5
:1014A000204600F023F8242084F841002068C16819
:1014B00021F40051C160204600F036F9206801692E
:1014C00021F4904101612068416921F02A014161C4
:1014D0002068C16841F40051C1606564202084F82F
:1014E000410084F842006563002070BD30B585B0CE
:1014F00000240094019402940394006814498842E3
:1015000024D11448816941F480418161816901F4E9
:1015100080410491816941F00401816180690E4D2F
:1015200000F0040004904FF400700090022001903D
:101530000320039069462846FFF722FB2815CDE9D2
:101540000004694628460294FFF71AFB05B030BD37
:101550000038014000100240000801402DE9F84326
:10156000044690F84100984616460D46202802D0C1
:101570000220BDE8F88385B17EB10020606421209F
:1015800084F84100FFF7FAFBA6848146E684A06850
:101590002027B0F5805F02D003E00120E9E7206951
:1015A00010B12E4600250EE000260CE080212046DA
:1015B00000F016F9A8B9C6B116F8010B2168486009
:1015C000E08C401EE084E08C4B464FF00002CDF8EA
:1015D00000800028EAD14FF04001204600F000F9D9
:1015E00040B184F841700320C3E735F8020BC0F323
:1015F0000800E3E784F841700020BAE7FEE7000046
:10160000FEB5002416480094019414490294016028
:1016100089158160012505730475022606614FF462
:1016200060214460C161FFF72FF808B172B6FEE790
:1016300007200094CDE9015069460948FEF7A2FF52
:1016400008B172B6FEE7CDE9005669460448FEF7D8
:1016500099FF002801D072B6FEE7FEBD00240140CC
:1016600014000020FEE7FEE770477047FFF78CBBD1
:1016700030B593B028216846FEF75BFD14210AA817
:10168000FEF757FD002401200F94022504900095D9
:101690001020119405901094129407946846FFF757
:1016A0004FFD08B172B6FEE70F20CDE90A040C9495
:1016B0000D9400210AA80E94FFF766FC08B172B6DB
:1016C000FEE70FA80F951194FFF7E8FB002801D063
:1016D00072B6FEE713B030BD704701680C3151E8B7
:1016E000002F22F4907241E80023002BF5D101680D
:1016F000143151E8002F22F0010241E80023002BB1
:10170000F5D1016B012909D101680C3151E8002F95
:1017100022F0100241E80023002BF5D1202180F8AF
:10172000421000210163704770B5044600680169EA
:10173000E26821F44051114301612169A068084326
:10174000616908432168CA6841F20C639A43024305
:10175000CA6020684169A26921F440711143416166
:101760001E492068884202D1FFF7B4FC01E0FFF770
:10177000A1FC00EBC00101EB001260686421800055
:10178000B2FBF0F3B3FBF1F36FF018067343B2FB57
:10179000F0F5B2FBF0F605EB8305322303EB0515FC
:1017A000B5FBF1F5B6FBF1F605F0F00505EB061516
:1017B000B2FBF0F6B2FBF0F0B0FBF1F06FF0180204
:1017C000504306EB800003EB0010B0FBF1F0216802
:1017D00000F00F002844886070BD00000038014010
:1017E0002DE9F843984617460D460446089E24E026
:1017F000701C22D0FFF7C2FAA0EB0800B0421AD842
:10180000CEB12068C168490717D5802D15D0402D6D
:1018100013D00168C94309070FD401680025406847
:1018200000902046FFF759FF0820606484F840507C
:101830000120BDE8F8830320FBE72068006835EA53
:10184000000004D00020B842D2D00020F1E70120EF
:10185000F9E7FEE70FB4084B10B504A902AA0398F4
:1018600000F02CF8044602A9002000F0D1F8204630
:1018700010BC5DF814FB0000111A00080907090EDE
:10188000002804DB00F1E02080F80014704700F02D
:101890000F0000F1E02080F8141D704702E008C836
:1018A000121F08C1002AFAD170477047002001E0DA
:1018B00001C1121F002AFBD1704700002DE9FF4F24
:1018C00089B09B460446002506E025280BD05A46E1
:1018D0000B999047641C6D1C20780028F5D10DB041
:1018E0002846BDE8F08F0027B8460122474900E0AE
:1018F000074314F8013F203B02FA03F00842F7D1F6
:1019000020782E2819D114F8010F47F004072A284F
:101910000ED06FF02F022078A0F1300109290CD8E9
:1019200008EB880102EB410100EB0108641CF2E7BF
:101930000A98641C50F8048B0A9020780028CED0B6
:10194000642808D0692806D075281ED05A460B99FD
:1019500090476D1C58E00A994FF00A0901C90A9195
:10196000002802DA40422D2102E0390504D52B215E
:101970008DF82010012103E0F90704D02021F7E7BA
:101980008A4608AE0DE00021FAE70A994FF00A09ED
:1019900001C90A91F7E74946FEF7D3FC303106F852
:1019A000011D0028F7D1ADEB060000F120097807F2
:1019B00001D44FF00108C84502DDA8EB090000E0A2
:1019C00000208046002706E008A85A46C05D0B9913
:1019D00090476D1C7F1C5745F6DB04E030205A46CB
:1019E0000B9990476D1CB8F10001A8F10108F5DCD6
:1019F00005E016F8010B5A460B9990476D1CB9F19A
:101A00000001A9F10109F4DC641C65E70928010063
:101A10000A68531C0B6010707047000086B0FFF717
:101A2000BBF9FFF725FE0025514C00950195029565
:101A30000395A06940F01000A061A06900F01000BB
:101A40000490A06940F00400A061A069494F00F033
:101A500004004FF400560490002231463846FFF748
:101A600087F901200096CDE901050220039069461F
:101A70003846FFF785F8606940F0010060616069F1
:101A800000F001000090FFF7BBFD3C483A490160BF
:101A90004FF41651C0E901150C21C560C0E904518D
:101AA0008561C561FFF7F0FC08B172B6FEE7334807
:101AB000022233493038FEF7BBFEB146304DDFF825
:101AC000C4A0DFF8C4B0314EB84649464046FFF7DF
:101AD00047F928886C88A0F50060A4F2A464FEF79A
:101AE0000EFC5146FEF78FFB5946FEF7BEFB314612
:101AF000FEF789FB3146FEF7B8FBFEF709FC074607
:101B00002046FEF7FCFB0121FEF7EDFB2049FEF726
:101B1000ACFB3146FEF777FB3146FEF7A6FB0446E9
:101B2000FEF7F6FB0190FEF7EAFB2146FEF768FBA5
:101B30001849FEF768FBFEF7EBFB002800DA40428D
:101B400000900E483A4614A14830019BFFF782FEF0
:101B50000A484830FEF7F8FA084982B2642348314F
:101B60000648FFF7FBFC1420FEF7F8FFADE7000086
:101B700000100240001001400038014044000020E5
:101B80000000002000809B4300E0FF4400007A44F6
:101B90000080D4440000C84225642C2025642E25F2
:101BA000640A0D00010202030405060708090A0B76
:101BB0000C0D0E0F101000000000000000000102CC
:101BC00003040607080900000000010203040000E6
:101BD000F01B000800000020140000009C18000802
:101BE000041C000814000020F4040000AC180008D5
:101BF00000000000010000001000000000000000D4
:041C000000127A0054
:04000005080000ED02
:00000001FF
